:100000000C9462000C948A000C948A000C948A0070
:100010000C948A000C948A000C948A000C948A0038
:100020000C948A000C948A000C948A000C948A0028
:100030000C948A000C948A000C948A000C948A0018
:100040000C941D060C948A000C948A000C948A006F
:100050000C948A000C948A000C948A000C948A00F8
:100060000C948A000C948A000000000024002700F1
:100070002A0000000000250028002B0000000000DE
:1000800023002600290004040404040404040202DA
:100090000202020203030303030301020408102007
:1000A0004080010204081020010204081020000012
:1000B0000008000201000003040700000000000027
:1000C0000000F00911241FBECFEFD8E0DEBFCDBF86
:1000D00011E0A0E0B1E0E0ECF8E102C005900D9283
:1000E000AA38B107D9F722E0AAE8B1E001C01D9211
:1000F000A733B207E1F710E0C2E6D0E004C02197D1
:10010000FE010E94580CC136D107C9F70E9467064C
:100110000C945E0C0C94000096E0899FD001112491
:10012000A055BE4F90967C936E935F9791E0919609
:100130009C939197E0911D02F0911E0290911C02F8
:10014000992339F0309751F0811108C08091CC018A
:100150000994309719F05C968C91FACF0895CF925C
:10016000DF92EF92FF920F931F9396E0899FF00129
:100170001124E055FE4F11A2278D30A12130310509
:1001800051F178F02230310509F451C023303105A6
:1001900009F452C01F910F91FF90EF90DF90CF9024
:1001A00008956623B9F361E070E00E948C002FB7D8
:1001B000F8948091AC019091AD01A091AE01B09105
:1001C000AF012FBF8093080290930902A0930A0207
:1001D000B0930B02DFCF9FB7F894C090AC01D090E2
:1001E000AD01E090AE01F090AF019FBF0091080219
:1001F0001091090220910A0230910B02C01AD10A13
:10020000E20AF30A00911A0210911B0230E020E08A
:100210000C151D052E053F0550F462E070E01F919E
:100220000F91FF90EF90DF90CF900C948C006111B4
:10023000B1CF63E070E0F3CF70E060E0F0CFAF9259
:10024000BF92CF92DF92EF92FF920F931F93CF93C3
:10025000DF936C017B018B01040F151FEB015E0125
:10026000AE18BF08C017D10759F06991D601ED91BA
:10027000FC910190F081E02DC6010995892B79F759
:10028000C501DF91CF911F910F91FF90EF90DF900B
:10029000CF90BF90AF900895833081F028F48130E3
:1002A00099F08230A9F008958730A9F08830C9F01C
:1002B0008430B1F4809180008F7D03C080918000F4
:1002C0008F7780938000089584B58F7784BD0895DB
:1002D00084B58F7DFBCF8091B0008F778093B00085
:1002E00008958091B0008F7DF9CFCF93DF93282FB1
:1002F00030E0F901E255FF4F8491F901E656FF4FD6
:10030000D491F901EA57FF4FC491CC23A1F0811198
:100310000E944C01EC2FF0E0EE0FFF1FE458FF4F5E
:10032000A591B491EC91ED2381E090E009F480E097
:10033000DF91CF91089580E090E0FACF862F0C9462
:1003400075011F93CF93DF93282F30E0F901E25519
:10035000FF4F8491F901E656FF4FD491F901EA5716
:10036000FF4FC491CC23A9F0162F81110E944C019C
:10037000EC2FF0E0EE0FFF1FEE58FF4FA591B49168
:100380008FB7F894EC91111108C0D095DE23DC935F
:100390008FBFDF91CF911F910895DE2BF8CF862F6D
:1003A000642F0C94A101CF93DF9390E0FC01E656FB
:1003B000FF4F24918A579F4FFC0184918823C9F0F5
:1003C00090E0880F991FFC01E859FF4FA591B49167
:1003D000FC01EE58FF4FC591D49161110DC09FB73C
:1003E000F8948C91209582238C93888128232883EC
:1003F0009FBFDF91CF910895623051F49FB7F89479
:100400003C91822F809583238C93E8812E2BEFCF14
:100410008FB7F894EC912E2B2C938FBFEACF862FB9
:10042000642F0C94D3016F927F928F929F92AF9220
:10043000BF92CF92DF92EF92FF920F931F93CF93D1
:10044000DF9381E080931C028FB7F8944091AC0158
:100450005091AD016091AE017091AF018FBF80915D
:100460000C0290910D02A0910E02B0910F02481B58
:10047000590B6A0B7B0B8091180290911902B0E026
:10048000A0E084179507A607B70708F01DC1C0E0D4
:1004900080911602C81760F4E0911202F0911302E5
:1004A000EC0FF11D62E080810E94D301CF5FF0CF9D
:1004B000712C812C912C5401839480911702781611
:1004C00008F05FC0072D10E0E0911402F0911502D2
:1004D000E00FF11F61E080810E94D301E0911402DE
:1004E000F0911502E00FF11F60E080810E94A101F0
:1004F000D501C401072C04C0880F991FAA1FBB1F78
:100500000A94D2F76C017C01E094F094612C809104
:1005100016026816F8F4C62DD0E0E0911202F091B0
:100520001302EC0FFD1F80810E9475012496CC0FF1
:10053000DD1FC055DE4F892B41F4888199818C29BC
:100540009D29998388836394E2CF888199818E2144
:100550009F21F7CFE0911402F0911502E00FF11FF7
:1005600061E080810E94A1018091140290911502A6
:10057000080F191F60E0F80180810E94D301739475
:100580009CCFC0EBD1E0FE018FEF9FEF278D30A114
:10059000232B21F4148E968F858F11A2369621E09D
:1005A000EC3EF20799F7F12C96E0D92E80911602D5
:1005B000F81608F050C0E12C0F2D10E0000F111FAD
:1005C00008541E4F20911702E21608F042C0F801AD
:1005D000608171810E2C02C0769567950A94E2F7CE
:1005E000F29E900111242E0D311DE0EBF1E080E030
:1005F000458D568D2417350709F46AC08F5F3696EE
:100600008A30B1F760FF23C0E0EBF1E090E080E0DA
:10061000448D411117C0E0911002F0911102E20FD8
:10062000F31F4081D89EF001D99EF00D1124E055B2
:10063000FE4F448F368F258F10A2178E61E00E94E7
:10064000AF0005C0019636968A30910509F7E3940C
:10065000B9CFF394ABCF80E099A19111892F269661
:10066000F1E0CC3EDF07C1F79FB7F8944091AC01B1
:100670005091AD016091AE017091AF019FBF409369
:100680000C0250930D0260930E0270930F028823A8
:10069000D9F08091D1018823B9F08091CF01909158
:1006A000D001019789F48091CC01DF91CF911F9106
:1006B0000F91FF90EF90DF90CF90BF90AF909F9001
:1006C0008F907F906F90089510921C0280E0EDCF84
:1006D0006170B5CF3FB7F8948091930190919401E8
:1006E000A0919501B091960126B5A89B05C02F3F1A
:1006F00019F00196A11DB11D3FBFBA2FA92F982F48
:100700008827BC01CD01620F711D811D911D42E042
:10071000660F771F881F991F4A95D1F708958F920A
:100720009F92AF92BF92CF92DF92EF92FF924B01D6
:100730005C010E946A036B017C010E946A036C19D0
:100740007D098E099F09683E734081059105A8F3D4
:1007500021E0821A9108A108B10888EEC80E83E052
:10076000D81EE11CF11C81149104A104B10429F7E5
:10077000FF90EF90DF90CF90BF90AF909F908F90C1
:100780000895089590E080E00895FC010190002014
:10079000E9F73197AF01481B590BBC018FE192E09B
:1007A0000C941F018F929F92AF92BF920F931F9351
:1007B000CF93DF93CDB7DEB7A1970FB6F894DEBF26
:1007C0000FBECDBF19A2423008F44AE08E010F5D82
:1007D0001F4F842E912CB12CA12CA50194010E94B5
:1007E000650AE62FB901CA01EA30F4F4E05DD801E8
:1007F000EE938D01232B242B252B79F790E080E0BD
:10080000109719F0CD010E94C503A1960FB6F89478
:10081000DEBF0FBECDBFDF91CF911F910F91BF9073
:10082000AF909F908F900895E95CE1CF0C94C50341
:10083000CF93DF93EC0160E08E810E94A10161E023
:100840008E810E94A10160E08E810E94A1018BE84F
:1008500091E00197F1F7DF91CF910895CF92DF9268
:10086000EF92FF920F931F93CF93DF936C017C0164
:1008700087E0E80EF11CD0E0C0E0062F10E0B801E0
:100880000C2E02C0759567950A94E2F76170F70126
:1008900081917F010E94A1012196C430D10579F791
:1008A000C601DF91CF911F910F91FF90EF90DF90E4
:1008B000CF900C941804CF92DF92EF92FF920F9397
:1008C0001F93CF93DF93EC01F62E642F8C810E944F
:1008D000A1018D818F3F19F060E00E94A1010F2DD1
:1008E00010E08F8584FF25C06E0187E0C80ED11C03
:1008F000F12CE12CB8010E2C02C0759567950A9475
:10090000E2F76170F60181916F010E94A101FFEF92
:10091000EF1AFF0A88E0E816F10461F7CE01DF91D3
:10092000CF911F910F91FF90EF90DF90CF900C949B
:100930001804B80184E0759567958A95E1F7CE01B2
:100940000E942E046F2DCE01DF91CF911F910F9148
:10095000FF90EF90DF90CF900C942E0440E0682F32
:100960008FE192E00C945B0481E00E94AE048BE383
:100970009FE10197F1F70895CF93DF93823029F437
:1009800090912E02986090932E02809332021092E2
:10099000330280E48093340280E18093350280E565
:1009A0008093360261E0809123020E94D3018091FE
:1009B00024028F3F19F061E00E94D30161E0809131
:1009C00025020E94D301CFE1D2E09E012F51324097
:1009D00080912E0284FD0BC084E090E021962817C0
:1009E000390744F461E08E810E94D301EECF88E0A4
:1009F00090E0F4CF8BE39DE00197F1F760E0809108
:100A000023020E94A10160E0809125020E94A101C1
:100A1000809124028F3F19F060E00E94A101809133
:100A20002E0284FD34C063E08FE192E00E942E0428
:100A3000CBE4D6E4CE010197F1F763E08FE192E0D9
:100A40000E942E042197F1F763E08FE192E00E946B
:100A50002E0483E592E00197F1F762E08FE192E0E6
:100A60000E942E0480912E0280620E94AE0484E0D7
:100A700080932F028CE00E94AE040E94B40482E0B6
:100A80008093300286E0DF91CF910C94AE048062B7
:100A90000E94AE048BE496E40197F1F780912E0258
:100AA00080620E94AE0483E592E00197F1F78091A5
:100AB0002E0280620E94AE04D5CF90913202691757
:100AC00010F06FEF690FE62FF0E0E15EFD4F9489C3
:100AD000890F80680C94AE0441E00E945B0481E0C1
:100AE00090E00895CF92DF92EF92FF926C01990F00
:100AF000EE08FF08F7FE16C041E06DE28FE192E0DC
:100B00000E945B0466277727CB016C197D098E094B
:100B10009F094AE00E94D2030196FF90EF90DF9078
:100B2000CF9008954AE0C701B601FF90EF90DF90A3
:100B3000CF900C94D203CF93DF930E94B4048DE244
:100B400091E00E94160461E080E00E945D05D0E023
:100B5000C0E00E9413028823E1F38332D1F38A328A
:100B6000C1F3082E000C990BC097FE01EE0FFF1F7A
:100B7000E257FE4F918380830E9472052196C23016
:100B8000D10539F720918E0130918F014AE0429FC3
:100B9000C001439F900D112420919001309191014B
:100BA000820F931F823391053CF49093160180933A
:100BB0001501DF91CF91089582E390E0F6CFCF93B6
:100BC000DF930E94B4048EE391E00E94160461E07A
:100BD00080E00E945D05D0E0C0E00E9413028823FF
:100BE000E1F38332D1F38A32C1F3082E000C990B62
:100BF000C097FE01EE0FFF1FE657FE4F91838083E3
:100C00000E9472052196C230D10539F720918A01E0
:100C100030918B014AE0429FC001439F900D112407
:100C200020918C0130918D01820F931F90931401BC
:100C300080931301DF91CF9108951F920F920FB609
:100C40000F9211242F933F938F939F93AF93BF9352
:100C50008091AC019091AD01A091AE01B091AF0136
:100C60003091920123E0230F2D3758F50196A11DF5
:100C7000B11D209392018093AC019093AD01A0939C
:100C8000AE01B093AF018091930190919401A09136
:100C90009501B09196010196A11DB11D809393011C
:100CA00090939401A0939501B0939601BF91AF9159
:100CB0009F918F913F912F910F900FBE0F901F909A
:100CC000189526E8230F0296A11DB11DD2CF789466
:100CD00084B5826084BD84B5816084BD85B5826041
:100CE00085BD85B5816085BD80916E0081608093F2
:100CF0006E0010928100809181008260809381005B
:100D0000809181008160809381008091800081606A
:100D1000809380008091B10084608093B1008091C5
:100D2000B00081608093B00080917A0084608093ED
:100D30007A0080917A00826080937A0080917A00B4
:100D4000816080937A0080917A00806880937A0035
:100D50001092C10061E080E10E94D30161E081E175
:100D60000E94D30161E082E10E94D30161E083E14E
:100D70000E94D30182E00E94BC0460E084E00E94F3
:100D80005D058EE491E00E94160468EE73E080E059
:100D900090E00E948F030E94B4042BE9222E312C94
:100DA000AA24A394B12C40E0842E40E0942E0E940B
:100DB0001302D82F1092A7011092A8011092A90136
:100DC0001092AA011092AB0161E08FE00E94D30162
:100DD00060E08FE00E94A10164E170E080E090E0BB
:100DE0000E948F0361E08FE00E94A101C101019781
:100DF000F1F760E08FE00E94D30101E117E28FE09C
:100E00000E947501892B09F0BAC001501109B9F788
:100E10008091A3019091A401A091A501B091A60198
:100E200080939B0190939C01A0939D01B0939E01A0
:100E3000DD2309F445C0D33209F037C10E949B0578
:100E400068EE73E080E090E00E948F03C0909B0109
:100E5000D0909C01E0909D01F0909E016091150161
:100E600070911601072E000C880B990B0E94310B14
:100E7000A70196010E94F40A87FD12C06091130138
:100E800070911401072E000C880B990B0E94310BF6
:100E90009B01AC01C701B6010E94F40A87FF0BC198
:100EA0008091990190919A01909398018093970174
:100EB00064EC79E080E090E00E948F030E94B4042B
:100EC0002091130130911401809115019091160128
:100ED000821793070CF0F4C086E591E00E94160497
:100EE00068EE73E080E090E00E948F030E949B0513
:100EF00068EE73E080E090E00E948F030E94DF05BF
:100F000068EE73E080E090E00E948F030E94B404DA
:100F10001092980110929701C0909B01D0909C0173
:100F2000E0909D01F0909E01609115017091160175
:100F3000072E000C880B990B0E94310BA70196011C
:100F40000E94F40A87FD12C0609113017091140190
:100F5000072E000C880B990B0E94310B9B01AC01F2
:100F6000C701B6010E94F40A87FFAACF80919901B8
:100F700090919A019093980180939701A1CF01E1FC
:100F800017E28FE00E947501019721F401501109C9
:100F9000C1F73ECF08E210E0C7E0D12C91E1E92E85
:100FA00097E2F92E8FE00E947501892B29F481E0E8
:100FB000E81AF108B9F72CCF0E946A032B013C0113
:100FC00081E1E82E87E2F82E8FE00E9475010197FB
:100FD00029F481E0E81AF108B9F71ACF0E946A03F0
:100FE00064197509860997096932710581059105AA
:100FF00068F0ED2DF0E0E156FE4F808595010C2E56
:1010000001C0220F0A94EAF7822B8087C1114BC0DE
:10101000D394C7E00150110909F0C0CF6091A70136
:101020007091A80176276727762790E080E00E94DC
:101030002F0B2DEC3CEC4CEC5DE30E94E60B609337
:101040009F017093A0018093A1019093A2018091D0
:10105000A90121E030E087FF05C08F778093A901C7
:101060002FEF3FEF8091A9019091AA01982789273E
:101070009827829FB001839F700D929F700D11245D
:1010800090E080E00E942F0B2DEC3CEC4CEC5DE3FB
:101090000E94E60B6093A3017093A4018093A501C5
:1010A0009093A601B5CEC150B5CFDA3209F0CECEBD
:1010B0000E94DF05C5CE1092980110929701F8CEDC
:1010C0000E94B40460E080E00E945D0583E891E046
:1010D0000E941604C0909B01D0909C01E0909D015D
:1010E000F0909E01A7019601C701B6010E94530C22
:1010F000882309F4C1C087E691E00E94C50383E715
:1011000091E00E94160461E080E00E945D0520915C
:101110001501309116018091130190911401281747
:10112000390709F43DC186E791E00E9416048091D9
:101130001301909114010E94720583E791E00E94CF
:1011400016048DE791E00E9416048091150190919C
:1011500016010E94720583E791E00E941604009137
:10116000150110911601C0911301D0911401B8011D
:101170006C0F7D1F072E000C880B990B0E94310B02
:1011800020E030E040E05FE30E94E60B0E94F90AB5
:101190002B0170939A0160939901C0909B01D090AC
:1011A0009C01E0909D01F0909E01B801110F880B09
:1011B000990B0E94310BA70196010E94F40A87FD4A
:1011C0000EC0BE01DD0F880B990B0E94310B9B01F5
:1011D000AC01C701B6010E94F40A87FF04C0509217
:1011E000980140929701C0919701D0919801BE015A
:1011F0000D2E000C880B990B0E94310B2B013C012A
:10120000CD2B41F1AC019B01C701B6010E94E10B5E
:10121000181684F461E080E10E94A10161E082E19E
:101220000E94A10160E081E10E94A10160E083E1F0
:101230000E94A101A3019201C701B6010E94F40A14
:1012400087FDB7C0A3019201C701B6010E94F40A4D
:101250008111BFC0109298011092970160E080E167
:101260000E94A10160E082E10E94A10160E081E1B1
:101270000E94A10160E0AAC026013701E89477F836
:101280002FEF3FEF4FE75FE7C301B2010E94530C1E
:1012900081110DC02FEF3FEF4FE75FE7C301B201B0
:1012A0000E94F40A18161CF48BE691E026CF2FEF6B
:1012B0003FEF4FE75FE4C701B6010E94E10B18164C
:1012C0001CF48FE691E019CF2FEF3FEF4FE75FEC73
:1012D000C701B6010E94F40A87FDF3CF20E030E099
:1012E000A901C701B6010E94F40A87FF0AC041E0C4
:1012F0006DE28FE192E00E945B04F7FAF094F7F858
:10130000F0942AE037ED43EA5BE3C701B6010E949F
:10131000880A2B013C010E94000B6B017C010E949A
:101320002F0B9B01AC01C301B2010E94870A2B0164
:101330003C014AE0C701B6010E94D20341E06EE2DF
:101340008FE192E00E945B0420E030E040E251E453
:10135000C301B2010E94E60B2B013C010E94000B6D
:101360006B01F12CE12C4AE0C701B6010E94D203C7
:10137000C701B6010E942F0B9B01AC01C301B20152
:101380000E94870A20E030E040E251E40E94E60B30
:101390000E94000B90E080E04AE00E94D203AFCEB2
:1013A0008FE791E00E94160480911301909114013F
:1013B000D0CE60E080E10E94A10160E082E10E9465
:1013C000A10161E081E10E94A10161E083E10E944D
:1013D000A1018114910409F4EACC0E940000E7CC39
:1013E0001092B2011092B6011092B5011092B7019D
:1013F00087E291E09093B1018093B001ECECF1E0D1
:101400001082148213821582369682E0E830F80743
:10141000B9F783E091E0909313028093120280E089
:1014200091E0909315028093140294E09093160239
:1014300083E08093170227E031E03093110220937C
:1014400010022AE030E0309319022093180224EFB2
:1014500031E030931B0220931A0210921E02109268
:101460001D0210920C0210920D0210920E021092A8
:101470000F0210921C0210922202109221022BE104
:1014800031E03093200220931F0227E020932302B3
:101490002FEF2093240226E02093250225E02093BD
:1014A0002602909327028093280282E080932902EB
:1014B00010922A0210922B0210922C0210922D02EE
:1014C00010922E0281E00C94BC04A1E21A2EAA1BF9
:1014D000BB1BFD010DC0AA1FBB1FEE1FFF1FA217E4
:1014E000B307E407F50720F0A21BB30BE40BF50BE1
:1014F000661F771F881F991F1A9469F7609570956A
:10150000809590959B01AC01BD01CF010895505885
:10151000BB27AA270E949F0A0C94A70B0E94990B35
:1015200038F00E94A00B20F039F49F3F19F426F404
:101530000C94960B0EF4E095E7FB0C94900BE92FBE
:101540000E94B80B58F3BA17620773078407950710
:1015500020F079F4A6F50C94DA0B0EF4E0950B2E3E
:10156000BA2FA02D0B01B90190010C01CA01A001F5
:101570001124FF27591B99F0593F50F4503E68F150
:101580001A16F040A22F232F342F4427585FF3CF91
:10159000469537952795A795F0405395C9F77EF462
:1015A0001F16BA0B620B730B840BBAF09150A1F0AB
:1015B000FF0FBB1F661F771F881FC2F70EC0BA0F31
:1015C000621F731F841F48F4879577956795B795B9
:1015D000F7959E3F08F0B0CF9395880F08F09927B4
:1015E000EE0F9795879508950E946C0B08F481E0A3
:1015F00008950E94000B6894B1110C94DB0B0895C0
:101600000E94C00B88F09F5798F0B92F9927B751C7
:10161000B0F0E1F0660F771F881F991F1AF0BA9596
:10162000C9F714C0B13091F00E94DA0BB1E008950F
:101630000C94DA0B672F782F8827B85F39F0B93F01
:10164000CCF3869577956795B395D9F73EF4909549
:101650008095709561957F4F8F4F9F4F0895E894C7
:1016600009C097FB3EF490958095709561957F4FEA
:101670008F4F9F4F9923A9F0F92F96E9BB27939598
:10168000F695879577956795B795F111F8CFFAF4A8
:10169000BB0F11F460FF1BC06F5F7F4F8F4F9F4FD9
:1016A00016C0882311F096E911C0772321F09EE837
:1016B000872F762F05C0662371F096E8862F70E09D
:1016C00060E02AF09A95660F771F881FDAF7880F77
:1016D0009695879597F90895990F0008550FAA0BCD
:1016E000E0E8FEEF16161706E807F907C0F0121635
:1016F0001306E407F50798F0621B730B840B950B38
:1017000039F40A2661F0232B242B252B21F408958C
:101710000A2609F4A140A6958FEF811D811D089529
:1017200097F99F6780E870E060E008959FEF80EC94
:10173000089500240A941616170618060906089537
:1017400000240A9412161306140605060895092E9D
:101750000394000C11F4882352F0BB0F40F4BF2B0C
:1017600011F460FF04C06F5F7F4F8F4F9F4F08954C
:1017700057FD9058440F551F59F05F3F71F0479542
:10178000880F97FB991F61F09F3F79F08795089527
:10179000121613061406551FF2CF4695F1DF08C046
:1017A000161617061806991FF1CF86957105610563
:1017B00008940895E894BB2766277727CB0197F90B
:1017C00008950E946C0B08F48FEF08950E94F90BA6
:1017D0000C94A70B0E94990B38F00E94A00B20F0EC
:1017E000952311F00C94900B0C94960B11240C94EF
:1017F000DB0B0E94B80B70F3959FC1F3950F50E07F
:10180000551F629FF001729FBB27F00DB11D639FB2
:10181000AA27F00DB11DAA1F649F6627B00DA11D58
:10182000661F829F2227B00DA11D621F739FB00DFE
:10183000A11D621F839FA00D611D221F749F33276E
:10184000A00D611D231F849F600D211D822F762F07
:101850006A2F11249F5750409AF0F1F088234AF0E4
:10186000EE0FFF1FBB1F661F771F881F9150504050
:10187000A9F79E3F510580F00C94900B0C94DB0B64
:101880005F3FE4F3983ED4F3869577956795B795D7
:10189000F795E7959F5FC1F7FE2B880F911D9695F1
:1018A000879597F908950E946C0B880B990B089502
:1018B000EE0FFF1F0590F491E02D0994F894FFCFEF
:1018C0000C0D0E0B0A0908313233343536373839EE
:1018D0002A302318001B00000000006C051F01C205
:1018E00003C103000000000F02CF019E014D4158CB
:1018F0002054454D50455241545552453A004D49AA
:101900004E2054454D50455241545552450057457F
:101910004C434F4D4500494E56414C494420494E99
:10192000505554212121006E616E00696E66006F72
:1019300076660020430052414E47453A002D005341
:0A19400045542054454D503D200051
:107E0000112484B714BE81FFF0D085E080938100F7
:107E100082E08093C00088E18093C10086E0809377
:107E2000C20080E18093C4008EE0C9D0259A86E02C
:107E300020E33CEF91E0309385002093840096BBD3
:107E4000B09BFECF1D9AA8958150A9F7CC24DD24C4
:107E500088248394B5E0AB2EA1E19A2EF3E0BF2EE7
:107E6000A2D0813461F49FD0082FAFD0023811F036
:107E7000013811F484E001C083E08DD089C08234E0
:107E800011F484E103C0853419F485E0A6D080C0E4
:107E9000853579F488D0E82EFF2485D0082F10E0AE
:107EA000102F00270E291F29000F111F8ED06801E7
:107EB0006FC0863521F484E090D080E0DECF843638
:107EC00009F040C070D06FD0082F6DD080E0C81688
:107ED00080E7D80618F4F601B7BEE895C0E0D1E017
:107EE00062D089930C17E1F7F0E0CF16F0E7DF06D8
:107EF00018F0F601B7BEE89568D007B600FCFDCFD4
:107F0000A601A0E0B1E02C9130E011968C91119780
:107F100090E0982F8827822B932B1296FA010C0160
:107F200087BEE89511244E5F5F4FF1E0A038BF0790
:107F300051F7F601A7BEE89507B600FCFDCF97BE46
:107F4000E89526C08437B1F42ED02DD0F82E2BD052
:107F50003CD0F601EF2C8F010F5F1F4F84911BD097
:107F6000EA94F801C1F70894C11CD11CFA94CF0C13
:107F7000D11C0EC0853739F428D08EE10CD085E9AC
:107F80000AD08FE07ACF813511F488E018D01DD067
:107F900080E101D065CF982F8091C00085FFFCCF94
:107FA0009093C60008958091C00087FFFCCF809118
:107FB000C00084FD01C0A8958091C6000895E0E648
:107FC000F0E098E1908380830895EDDF803219F02E
:107FD00088E0F5DFFFCF84E1DECF1F93182FE3DFCA
:107FE0001150E9F7F2DF1F91089580E0E8DFEE27F6
:047FF000FF270994CA
:027FFE00040479
:0400000300007E007B
:00000001FF
